:020000040800F2
:10000000F024002081020008831C0008B91B0008AE
:10001000811C0008C50300087526000800000000C8
:10002000000000000000000000000000A101000826
:10003000C703000800000000FD010008B11F000810
:100040009B0200089B0200089B0200089B0200081C
:100050009B0200089B0200089B0200089B0200080C
:100060009B0200089B0200089B0200089B020008FC
:100070009B0200089B0200089B0200089B020008EC
:100080009B0200089B0200089B0200089B020008DC
:100090009B0200089B0200089B0200089B020008CC
:1000A0009B020008B12000089B0200089B02000888
:1000B0009B02000800000000000000009B020008F6
:1000C0009B02000800000000000000009B020008E6
:1000D000000000005D2600086926000800000000FE
:1000E0009B0200089B0200080000000000000000C6
:1000F0000000000000000000000000000000000000
:100100000000000000000000000000009B0200084A
:1001100000000000000000009B0200089B02000895
:100120009B0200089B0200089B0200089B0200083B
:100130009B0200080000000000000000000000001A
:100140009B0200089B0200089B0200089B0200081B
:100150009B0200089B0200089B0200089B0200080B
:100160009B0200089B0200089B02000800000000A0
:100170009B0200089B020008000000000000000035
:100180009B0200089B0200089B020008DFF80CD0CD
:1001900000F006F90048004751290008F02400202B
:1001A0002C4B1968086800F05AB880F30988BFF32F
:1001B0006F8F4FF0000080F311887047000000003F
:1001C00008480068006880F308884FF0000080F35A
:1001D000148862B661B6BFF34F8FBFF36F8F00DF35
:1001E00000BF00BF08ED00E0DFF80C00016841F43B
:1001F00070010160704700BF88ED00E0EFF30980F7
:10020000BFF36F8F134B1A681EF0100F08BF20ED5D
:10021000108A20E9F04F106009B44FF0500080F3CD
:100220001188BFF34F8FBFF36F8F03F027FA4FF0A2
:10023000000080F3118809BC1968086800F014B840
:100240001EF0100F08BF00F014B880F30988BFF348
:100250006F8F704728000020EFF30580704730C88B
:10026000B0E8C04FFFF7A1BF30C8B0E8C04FFFF7FC
:10027000E7BFB0EC088AB0EC08CAFFF7E6BF0000A1
:100280000648804706480047FEE7FEE7FEE7FEE730
:10029000FEE7FEE7FEE7FEE7FEE7FEE76D2000086B
:1002A0008D0100082DE9F05F0546002092469B462F
:1002B00088460646814640241BE02846414647467C
:1002C000224600F05DF853465A46C01A914110D3B9
:1002D00011461846224600F044F82D1A67EB010833
:1002E0004F4622460120002100F03BF817EB0009A1
:1002F0004E41201EA4F10104DFDC484631462A4667
:10030000434600F000B830BCBDE8C09F40EA01039E
:100310009B0703D009E008C9121F08C0042AFAD2BB
:1003200003E011F8013B00F8013B521EF9D270477F
:10033000D2B201E000F8012B491EFBD27047002227
:10034000F6E710B513460A4604461946FFF7F0FFD4
:10035000204610BD421C10F8011B0029FBD1801A59
:100360007047202A04DB203A00FA02F1002070478F
:100370009140C2F1200320FA03F3194390407047E3
:10038000202A04DB203A21FA02F00021704721FAEA
:1003900002F3D040C2F12002914008431946704751
:1003A000064C074D06E0E06840F0010394E80700C2
:1003B00098471034AC42F6D3FFF7ECFEC84400086F
:1003C000E8440008FEE770471421017000214170E5
:1003D0008170C1707047000070B5274D04464FF022
:1003E000FF31286802F082FB607858B12278904291
:1003F00013D801280CD00023A178E678B14209D1A6
:10040000012608E00D2002F0F3FA0446032009E07B
:100410000123F1E70026B3420AD00D2002F0E8FAEA
:10042000044604202070286802F038FB204670BD86
:10043000401E10F0FF0060700AD0491CC9B2A170C4
:10044000914201D10021A170101A012808D00CE0BE
:10045000286802F023FBA07804EB8000406870BDA0
:1004600006480221006802F073FB286802F016FBC0
:10047000A07854F8200070BD040000200000002087
:100480002DE9F041234D0E4604464FF0FF37394623
:10049000286802F02BFB21786078814202D138462F
:1004A000BDE8F08188420ED840B1012806D0002373
:1004B000A778E278974203D1012702E00123F7E70A
:1004C0000027BB4205D0286802F0E8FA6FF001006F
:1004D000E6E7D8B1521CB2FBF1F001FB102004EBAF
:1004E000800046606078401CC0B26070012808D06F
:1004F000E078401CC0B2E0702178884201D1002031
:10050000E070286802F0CAFA0020C9E704EB820014
:10051000E7E700000400002086B0274C04E00A2230
:10052000012103A802F042FB206940780028F6D0A0
:100530002069FFF751FF05460678431C1FA20B21D7
:10054000684602F099F82F7B284602F0C3F920692B
:1005500001784078081A012803D10221206802F0AE
:10056000F7FA6EB1012E19D0022EDDD13A46694656
:10057000606902F086F93A466946D8B110A00AE0EF
:100580003A466946606902F027F93A46694608B179
:100590000DA000E00EA001F0CBFEC5E73A4669468B
:1005A000606902F03BFE3A46694608B10CA0F2E7EA
:1005B0000EA0F0E712A0EEE7000000202573000077
:1005C000466F756E6420000041646465642000001D
:1005D0004661696C656420746F206164642000006A
:1005E00044656C6574656420000000004661696CB8
:1005F000656420746F2064656C657465200000007C
:100600004469646E27742066696E642000000000EF
:1006100010B590F825100024022903D00421C163ED
:1006200001241AE001680A6822F00E020A600168DB
:100630000A6822F001020A6090F84410036C01F08D
:100640001C02012101FA02F25A6080F825100021F3
:1006500080F82410816B01B18847204610BD00004E
:100660002DE9FC4FDFF880A1002301250AF1040BDE
:1006700003244FF00F0C0BF1040EAEE005FA03F665
:1006800032406FD04F68012F05D0022F03D0112FB9
:1006900001D0122F17D1D0F808905F0004FA07F8A4
:1006A00029EA08090097D1F80C8008FA07F848EA07
:1006B0000908C0F808804768B7430E79C6F30016EA
:1006C0009E403E434660C6684FEA430804FA08F776
:1006D000BE4301978F6807FA08F73743C7604E6833
:1006E000022E01D0122E13D1DE0800EB86060096F2
:1006F000366A5F07FF0E0CFA07F926EA0906D1F8F9
:10070000109009FA07F949EA0609009EC6F82090F8
:100710000768019EB7430E7906F0030606FA08F64D
:100720003E4306604E68F60056D5304E376E47F0B1
:1007300001073766366E23F0030706F001060096C0
:100740002B4E3E44B146B6689F074FEA17780CFA25
:1007500008F7BE43B0F1904F05D0264FB84204D100
:10076000012708E038E0002705E0234FB84201D117
:10077000022700E0072707FA08F73743C9F808708F
:10078000DAF800605746D1F8048096435FEAC8382B
:1007900000D516433E60DBF800605F46D1F8048068
:1007A00096435FEA883800D516433E60DEF8006065
:1007B0007746D1F8048096435FEAC82800D51643EF
:1007C0003E60094F0C373E68D1F8048096435FEADB
:1007D000882800D516433E605B1C0A6832FA03F68F
:1007E0007FF44CAF00F00AB8000401400010024052
:1007F0000000014000040048000800481CBCBDE89F
:10080000E08F0AB18161704781627047014880685A
:1008100070470000180000200248816842681144B7
:10082000816070471800002010B50024032000F0FC
:100830008DF8002000F008F808B1012401E000F074
:100840003DF8204610BD000000B5014687B00022EB
:10085000192000F05BF8192000F04AF81348016EE7
:1008600041F400610166006E05A900F40060069085
:10087000684600F09FFA00F0CFFA0D490D4AB0FB30
:10088000F1F10D48491E0260416040F2E73200215B
:10089000C0E90321816000F0DCFD10B1012007B048
:1008A00000BD054800F0F2FDF9E70000001002402D
:1008B00040420F00002C0140040400200B4882B08D
:1008C000016E41F001010166016E01F0010100912C
:1008D000816D41F080518165806D002200F0805073
:1008E00000900F21901E02B000F010B800100240DE
:1008F000002809DB00F01F0201219140400980001F
:1009000000F1E020C0F8001170470000F0B40E4B79
:100910001B680C46C3F30223C3F10705042D00D95D
:100920000425191D072901D2002300E0DB1E012642
:1009300006FA05F1491E214099409E40761E164058
:100940003143F0BC01F0B0BE0CED00E0064900F010
:10095000070208684FF6FF03184040EA0220034AE6
:1009600010430860704700000CED00E00000FA053D
:100970001649B0F5007F0868C0F3412009D002286D
:1009800005D0086820F4C06040F480600860002052
:1009900070470128FBD0086820F4C06040F4007064
:1009A00008600B483222006850430A4AB0FBF2F05C
:1009B000401C00E0401E4A69520501D50028F9D1CB
:1009C00048694005E3D503207047000000700040EF
:1009D0002400002040420F000248006800F4C0607C
:1009E00070470000007000400248016841F48071C7
:1009F00001607047007000400248016841F0040146
:100A000001607047001002402DE9F84F04460027AE
:100A100000889C4D3E46000515D5E06B60B1B0F5F1
:100A2000000F04D0B0F5400F2BD001270AE0E86892
:100A300040F48030E86024E00021201D01F098F9A6
:100A400007001ED03E462068800338D5A86D4FF0C1
:100A50000008C00009D4A86D40F08050A865A86DBA
:100A60004FF0010800F080500090DFF81CA2DAF887
:100A7000001041F48071CAF80010FFF7C7FE8146EC
:100A800010E0D5F88800E16B20F440000843C5F879
:100A90008800D8E7FFF7BAFEA0EB0900022801D9C9
:100AA000032704E0DAF80000C005F3D5EFB33E46B3
:100AB000B8F1000F03D0A86D20F08050A865207811
:100AC000C00707D0D5F88800216A20F0030008434A
:100AD000C5F888002078800707D5D5F88800616AB6
:100AE00020F00C000843C5F888002078800607D560
:100AF000D5F88800A16A20F440600843C5F8880052
:100B00002088800507D5D5F88800616B20F4402047
:100B10000843C5F888002088400509D5D5F8880025
:100B2000A16B20F44010084300E02EE0C5F88800D7
:100B30002078400607D5D5F88800E16A20F44050B7
:100B40000843C5F888002088C00507D5D5F8880077
:100B5000216B20F440300843C5F8880020884FF00E
:100B6000006780044FF080684ED5D5F88800216C6E
:100B700020F040600843C5F88800206CB8423BD1A3
:100B8000E86840F48010E8603EE0D5F8900010F48A
:100B9000407014D0216D814211D0D5F89000D5F865
:100BA000901020F4407041F48031C5F89010D5F8D1
:100BB000901021F48031C5F89010C5F89000C0075E
:100BC00011D0FFF723FE074641F2883907E000BF46
:100BD000FFF71CFEC11B494501D9032668E7D5F87C
:100BE00090008007F4D5D5F89000216D20F4407076
:100BF0000843C5F890005BE7404505D10121201D61
:100C000001F0B6F800B106462068400317D5D5F8C4
:100C10008800616C20F040600843C5F88800606C73
:100C2000B84204D1E86840F48010E86007E040452D
:100C300005D10121201D01F09BF800B10646208856
:100C4000400411D5D5F88800A16C20F0405008432D
:100C5000C5F88800A06CB0F1805F05D10221201D8D
:100C600001F086F800B106462088000406D555F844
:100C7000880FE16C20F0804008432860304600F087
:100C800005B80000001002400070004018BCBDE82C
:100C9000E08F00002DE9F0470F46050058D0404E88
:100CA000306800F00700B84209D2306820F0070031
:100CB00038433060306800F00700B84248D12878E7
:100CC000384CC0072CD06868032811D0022812D0F5
:100CD000216898B1490500293ADAA16821F0030199
:100CE0000143A160FFF792FD804641F2883910E090
:100CF00021688901EFE721688903ECE78907EAE7C2
:100D0000FFF784FDA0EB0801494502D90320BDE8A7
:100D1000F087A068696800F00C00B0EB810FEFD19C
:100D20002878800705D5A068A96820F0F00008435E
:100D3000A060306800F00700B8420BD9306820F09E
:100D4000070038433060306800F00700B84201D037
:100D50000120DCE72878400705D5A068E96820F481
:100D6000E0600843A0602878000706D5A0682969DC
:100D700020F4605040EAC100A06000F05FF8A16874
:100D8000094AC1F30311515C01F01F01C840074932
:100D9000086007480068BDE8F047FFF755BD000050
:100DA000002002400010024060440008240000209F
:100DB000180000200F2202600C4A936803F003031E
:100DC0004360936803F0F0038360936803F4E06387
:100DD000C36092684FF4E06303EAD2020261044800
:100DE000006800F007000860704700000010024033
:100DF000002002400548064900688968054AC1F399
:100E00000221515C01F01F01C840704724000020FE
:100E100000100240A044000805480649006889689F
:100E2000054AC1F3C221515C01F01F01C84070475F
:100E30002400002000100240A044000870B525499D
:100E4000002318468A68CC6812F00C0204F00306EE
:100E5000214C4FEA640509D00C2A05D0042A32D06F
:100E6000082A00D1284670BD012E10D10B681B073F
:100E700004D4D1F89430C3F3032302E00B68C3F326
:100E80000313164E56F82330DAB10C2AEBD1C8689A
:100E900000F00300022818D0032818D01846CA68AA
:100EA000CB68C2F30212C3F306234343521CB3FBC5
:100EB000F2F2C868C0F34160401C4000B2FBF0F0A1
:100EC00070BD184670BD204670BD2046E7E7284635
:100ED000E5E70000001002400024F4007044000820
:100EE0002DE9F84304006FD0FE4DA86800F00C0611
:100EF000E86800F003072078C00664D576B10C2EB0
:100F000001D1012F0AD0A069002828687AD040F0CA
:100F100001002860FFF77AFC80465DE028688007C2
:100F200002D5A0690028DED0216A2868000703D511
:100F3000286800F0F00004E0D5F89400F02202EAFE
:100F40001010814216D9084600F0A8FF00283BD1B6
:100F5000286840F0080028602868216A20F0F00026
:100F6000084328606868E16920F47F4040EA012076
:100F7000686016E0286840F0080028602868216A48
:100F800020F0F000084328606868E16920F47F40A1
:100F900040EA0120686026B9206A00F07FFF00283F
:100FA000D5D1FFF74BFFA968CF4AC1F30311515CBC
:100FB00001F01F01C840CD490860CD480068FFF727
:100FC00043FC00287ED12EE0CAE000BFFFF71EFCE4
:100FD000A0EB0800022876D828688007F6D5286894
:100FE00040F0080028602868216A20F0F0000843DB
:100FF00028606868E16920F47F4040EA0120686069
:1010000011E0FFE720F001002860FFF7FFFB8046BA
:1010100006E000BFFFF7FAFBA0EB08000228DAD8D1
:1010200028688007F6D42078C00740D0082E18D052
:101030000C2E01D1032F14D06068B0F5803F17D07B
:10104000B0F5A02F286817D020F4803028602868D9
:1010500020F4802028606068E0B1FFF7D7FB80466D
:1010600014E02868800322D56068002878D01EE04C
:10107000286840F48030EDE740F480202860F7E7EE
:10108000FFF7C4FBA0EB08006428A4D828688003FD
:10109000F6D50CE0FFF7BAFB804605E0FFF7B6FB9C
:1010A000A0EB0800642896D828688003F6D420783E
:1010B00080073BD5042E11D00C2E01D1022F0DD06C
:1010C000E06801E0B6E1FFE0002828681ED040F4A7
:1010D00080702860FFF79AFB07460CE028684005FF
:1010E0000CD5E0680028C1D008E000BFFFF78EFBF8
:1010F000C01B022893D828684005F7D56868217C72
:1011000020F0F85040EA016068600FE020F4807041
:101110002860FFF77BFB074605E000BFFFF776FB83
:10112000C01B0228B1D828684005F7D420780007F2
:1011300029D560690028D5F8940012D040F001004C
:10114000C5F89400FFF762FB074604E0FFF75EFB7B
:10115000C01B022899D8D5F894008007F6D512E074
:101160002BE120F00100C5F89400FFF74FFB074684
:1011700005E000BFFFF74AFBC01B022885D8D5F861
:1011800094008007F6D42078400766D5A86D002724
:10119000C00008D4A86D40F08050A865A86D012754
:1011A00000F08050009053480168C90512D40168CE
:1011B000814641F480710160FFF728FB804605E01D
:1011C000FFF724FBA0EB080002287DD8D9F8000027
:1011D000C005F5D5A068012816D00528D5F89000DF
:1011E00017D020F00100C5F89000D5F8900020F04D
:1011F000040000BFC5F89000A06841F28839C0B172
:10120000FFF704FB80460FE0D5F8900040F00100A6
:10121000F0E740F00400C5F89000F5E7FFF7F6FAB4
:10122000A0EB080149454FD8D5F890008007F5D5C7
:101230000EE0FFF7EBFA804606E000BFFFF7E6FAA4
:10124000A0EB080149453FD8D5F890008007F5D4B8
:101250001FB1A86D20F08050A8652078800628D5A1
:10126000606A0028D5F8980012D040F00100C5F857
:101270009800FFF7CBFA074605E000BFFFF7C6FA74
:10128000C01B022820D8D5F898008007F6D510E0BA
:1012900020F00100C5F89800FFF7B8FA074604E00F
:1012A000FFF7B4FAC01B02280ED8D5F898008007C3
:1012B000F6D4A06AA8B1022824D00C2E7DD02868CC
:1012C00020F08070286000E0B3E02868000103D4BB
:1012D000E86820F00300E860E86807490840E86033
:1012E0000CE09FE000100240604400082400002051
:1012F0001800002000700040FFFFEEFEFFF786FAA6
:10130000044699E0E868E26A00F00301914226D1C0
:10131000216B00F070020901103991421FD1626BFC
:1013200000F4FE41B1EB022F19D194F8382000F0FF
:101330007841B1EBC26F12D1A18F00F4C00249080D
:101340004905A1F50011914209D194F8401000F02F
:10135000C06049084906A1F1007181424BD00C2EB2
:101360006FD0286840016CD4286820F08070286015
:10137000FFF74CFA064604E0FFF748FA801B022804
:1013800057D828688001F7D4F4E90B016FF00F02F9
:1013900002EB01110843218A5204490802EB415132
:1013A000A26841EA02210843217D4FF07E424908AC
:1013B00002EB41610843217B00E042E040EAC1606A
:1013C000E968214A11400843E860286840F08070CD
:1013D0002860E86840F08070E860FFF717FA04467C
:1013E00005E000BFFFF712FA001B022821D8286889
:1013F0008001F7D523E02868800120D4286840F0D8
:1014000080702860E86840F08070E860FFF7FEF9BF
:10141000044604E0FFF7FAF9001B022809D82868FF
:101420008001F7D50BE000BFFFF7F0F9001B0228A1
:1014300002D90320BDE8F88328688001F4D4002095
:10144000F8E70120F6E700008C809D0170477047A7
:10145000704710B5040003D094F83D0010B107E0C8
:10146000012010BD002084F83C00204600F00CF85C
:10147000022084F83D00211D206800F01FFE01209D
:1014800084F83D00002010BD704700000168CA6864
:1014900042F00102CA6001688868064A10400628C6
:1014A00006D0B0F5803F03D0086840F00100086026
:1014B0000020704707000100704770B504460068BF
:1014C00001694FF00005C943890715D4C168C943B4
:1014D000890711D4E91E0161012020772068806905
:1014E0008007204602D0FFF7E7FF04E000F0A7F8EE
:1014F000204600F0A5F8257720680169C94349070F
:1015000017D4C168C943490713D46FF004010161BE
:10151000022020772068806910F4407F204602D0A6
:10152000FFF7CAFF04E000F08AF8204600F088F8D0
:10153000257720680169C943090716D4C168C943E2
:10154000090712D46FF00801016104202077206898
:10155000C0698007204602D0FFF7AEFF04E000F02C
:101560006EF8204600F06CF8257720680169C943C1
:10157000C90617D4C168C943C90613D46FF0100156
:101580000161082020772068C06910F4407F204660
:1015900002D0FFF791FF04E000F051F8204600F080
:1015A0004FF8257720680169C943C90708D1C16888
:1015B000C943C90704D1891E0161204600F042F8E1
:1015C00020680169C943090609D4C168C9430906ED
:1015D00005D46FF0800101612046FFF738FF2068D5
:1015E0000169C943C90509D4C168C943090605D4BD
:1015F0006FF4807101612046FFF728FF20680169C0
:10160000C943490609D4C168C943490605D46FF0E6
:1016100040010161204600F01FF820680169C943BC
:1016200089060BD4C168C943890607D46FF020012D
:1016300001612046BDE87040FFF70ABF70BD7047EA
:101640007047000000680349884201D1FFF7E4B801
:1016500070470000002C0140704770477047000041
:101660002DE9F04102680446D0691168936840F69C
:101670000F0528424FF0000505D186067BD58E0662
:1016800079D5216E88E003F0010601F490773743A5
:1016900071D0C70707D0CF0505D501271762E26FC4
:1016A00042F00102E267820708D5DA0706D0276810
:1016B00002223A62E26F42F00402E267420708D572
:1016C000DA0706D0236804221A62E26F42F00202AF
:1016D000E26702070AD501F02002324306D02368F0
:1016E00008221A62E26F42F00802E267020509D599
:1016F0004A0107D523684FF400621A62E26F42F094
:101700002002E267E26F002A2ED0800605D5880607
:1017100003D5216E09B120468847E06F21688968AA
:10172000490602D410F0280F20D0204600F096FD84
:1017300020688168490614D5816821F040018160E4
:10174000E06E70B11D498163E06EFEF761FF002815
:101750000AD0E06E816B00E02046BDE8F04108470A
:1017600009E02046FFF77AFFBDE8F0812046FFF749
:1017700075FFE567F8E7C60209D55B0207D54FF4A8
:10178000801010622046BDE8F041FFF766BF0306F7
:1017900005D50B0603D5616E0029DDD1E4E74006CF
:1017A000E2D54806E0D51168204621F040011160DD
:1017B00020216167656600F0FEF9D5E7492200083F
:1017C00010B5040002D0606F10B107E0012010BD19
:1017D000002084F87000204600F026F8242060677E
:1017E0002068016821F001010160204600F0D0FD71
:1017F0000128ECD0606A10B1204600F095FC20680A
:10180000416821F4904141602068816821F02A01FB
:1018100081602068016841F0010101602046BDE857
:10182000104000F0E5BC0000F0B587B0044614217C
:101830006846FEF784FD2D4F236800262C490225BB
:10184000032407224FF09040BB421ED10B6E43F49D
:1018500080430B660B6E03F480430593CB6C43F01F
:101860000103CB64C96C01F00101059161028DE8AF
:101870006200CDE903426946FEF7F2FE002205212F
:101880002520FFF743F825202CE01A4FBB422BD12F
:101890008B6D43F400338B658B6D03F4003305933C
:1018A000CB6C43F00103CB64C96C074601F0010126
:1018B000059104218DE86200CDE903426946FEF7F7
:1018C000CFFE4FF40040CDE90005CDE90264694642
:1018D00004943846FEF7C4FE002205212620FFF7B7
:1018E00015F82620FFF704F807B0F0BD00380140D6
:1018F00000100240004400402DE9F84F0446806F7C
:101900009A4616460D4620286BD1EDB1E6B194F803
:101910007000012865D0012084F870004FF00008A5
:10192000C4F87C802220A067FEF770FFA4F85860FE
:101930008146A4F85A60A0684FF48053FF21984272
:1019400008D122691AB11CE0012000F04CB840F225
:10195000FF1116E07F2290B1B0F1805F14D0A4F89F
:101960005C8000BFB4F85C70984201D1206990B1EE
:101970002E46002584F8708007F0FF0825E02669D0
:1019800036B9A4F85C10EDE7216909B13F21F8E709
:10199000A4F85C20E6E70026ECE74B460022202175
:1019A0002046CDF800A000F007FE08B10320CCE7E8
:1019B0002068808C8EB100EA080006F8010B00BF99
:1019C000B4F85A00401EA4F85A00B4F85A0000288F
:1019D000E3D12020A0670020B7E7384025F8020BAC
:1019E000EEE70220B1E718BCBDE8E08F30B5836FA9
:1019F000202B4BD1B1B1AAB190F87030012B45D05A
:101A0000012380F870304165A0F85820A0F85A20D2
:101A1000002101661D038268FF23AA4207D10269E3
:101A200012B125E0012030BD40F2FF1226E07F24F4
:101A3000E2B1B2F1805F1ED0A0F85C10C167222233
:101A400082670268936843F0010393608268AA4248
:101A500001D10269C2B10E4A026680F870100068B6
:101A6000016841F490710160002030BD026942B903
:101A7000A0F85C30E2E702691AB13F22A0F85C20CE
:101A8000DCE7A0F85C40D9E7024AE5E7022030BD78
:101A9000D52200087B22000870B51649884227D15C
:101AA0005020EFF3118480F31188BFF34F8FBFF301
:101AB0006F8F114E0A23314635780E482A46FFF7BC
:101AC0001BFF0D2000F094FF0146002302E0F05CB4
:101AD000C8545B1CAB42FADB0848CD72C06800F00A
:101AE0000DF9012204490348FFF780FF84F31188B0
:101AF00070BD000090000020900100200000002038
:101B00002DE9F8430446406F1F4616460D4620282F
:101B10004FD1CDB1C6B194F87000012849D0012051
:101B200084F870004FF00008C4F87C8021206067C2
:101B3000FEF76CFEA4F850608146A4F85260A068DD
:101B4000B0F5805F03D004E00120BDE8F883206990
:101B500028B12E465FF0000584F8708010E0002662
:101B6000FAE78021204600F027FDB8B9C6B116F883
:101B7000010B21680885B4F85200401EA4F85200F9
:101B8000B4F852004B464FF0000200970028E8D10D
:101B90004FF04001204600F00FFD30B10320D4E7A4
:101BA00035F8020BC0F30800E3E72020606700204F
:101BB000CBE70220C9E77047FEE7000010B586B00A
:101BC00014216846FEF7BBFB1548C16C41F00401C7
:101BD000C164C16C01F004010591C16C41F00101C7
:101BE000C164C16C01F001010591C16C41F00201B9
:101BF000C164C06C0B4C00F002000590002208216B
:101C00002046FEF7FEFD0820009001200021CDE9CE
:101C10000101039169462046FEF722FD06B010BD82
:101C200000100240000400480948084901604FF4D0
:101C3000E1314160002181600C22C160C0E90412E1
:101C40008161C16101624162FFF7BABD00380140A4
:101C5000900000200948084901604FF4E1314160DB
:101C6000002181600C22C160C0E904128161C16160
:101C700001624162FFF7A4BD004400401001002052
:101C8000FEE7704714210170002141708170C1701E
:101C9000704770B5417859B10378994212D801293B
:101CA0000BD000248278C578AA4208D1012507E02C
:101CB0001A2000F09DFEFF2108E00124F2E7002534
:101CC000AC4205D01A2000F093FEFE21017370BDD6
:101CD000491E11F0FF01417009D0521CD1B2817030
:101CE000994208D10021817050F8230070BD00EBAB
:101CF0008200406870BD50F8210070BD70B5037857
:101D00004278934202D14FF0FF3070BD9A420ED814
:101D100042B1012A06D000258678C478A64203D1B4
:101D2000012602E00125F7E70026B54202D06FF058
:101D3000010070BDC2B1641CB4FBF3F203FB12429C
:101D400000EB820251604178491CC9B241700129FF
:101D500008D0C178491CC9B2C1700278914201D142
:101D60000021C170002070BD00EB8402EAE7000092
:101D70002DE9F041444C05468846E068002681077D
:101D800028680DD0E16801F00301814216D1A8B1A5
:101D9000E0686968C0F30210401C88420ED120E060
:101DA000012804D0022805D0032807D108E02168C3
:101DB000890701E021684905002907DB01265FE06A
:101DC0002168890302D421684903F5E7E1686A685C
:101DD0006FF00F0321F0730103EB02121143014373
:101DE000E160206820F080602060FEF70FFD07466C
:101DF00005E000BFFEF70AFDC01B022837D82068A7
:101E00000001F7D4B8F1000F18D0B8F1010F1DD0C0
:101E1000287D4FF07E41400801EB4060A96840EA10
:101E200001202169194A114008432061206840F0CF
:101E300080602060FEF7EAFC07461AE0A868297B6C
:101E4000000240EAC1602169114AECE7288A114981
:101E5000400801EB4050A96840EA012021690E4A80
:101E6000E1E700BFFEF7D2FCC01B022801D9032620
:101E700006E020680001F5D52069A96908432061C2
:101E80003046BDE8F081000000100240FF80FFF9FD
:101E9000FF80FF070000E0FFFF809FFFF8B51C4DAB
:101EA00006460024A86DC00002D5FEF795FD0DE0A2
:101EB000A86D40F08050A865A86D00F0805000909B
:101EC000FEF78AFDA96D21F08051A965B0F5007F6C
:101ED00004D0802E07D94FF003040AE0802E08D9E1
:101EE000A02E01D804E001D1022402E0702E00D11E
:101EF00001240848016821F00701214301600068BE
:101F000000F00700A04201D00120F8BD0020F8BD7C
:101F100000100240002002400EB50427234E3DE091
:101F200001F056FAF068FFF7B4FE054601F070FACA
:101F30000D2000F05DFD044695F90C00002831DB12
:101F4000E87A401E2073287804280CD2DFE800F0DD
:101F500002040709002000E00120207004E00220B4
:101F6000FBE70320F9E72770012002E0295C2154F8
:101F7000401CE97A8142F9DC04E00A220221684629
:101F800000F014FE3069417800788142F5D0214696
:101F90003069FEF775FA284600F09CFCF06840783E
:101FA0000028BDD100F058FEF8E700000000002036
:101FB00010B5502080F31188BFF34F8FBFF36F8FA0
:101FC00002F056F818B104494FF080500860002024
:101FD00080F3118810BD000004ED00E030B5ABB017
:101FE00044216846FEF7ABF9142126A8FEF7A7F9AD
:101FF000542111A8FEF7A3F9FEF7F6FC1A4850F891
:10200000901F21F01801016014200090012002901F
:10201000002460210690CDE907410221CDE90A1094
:102020000C9010200D900720CDE90E01684610910C
:10203000FEF756FF0F2026900325CDE9275429945B
:10204000012126A82A94FEF725FE199411A81195BE
:102050001A94FEF7D9FC4FF40070FEF789FCFEF7E6
:10206000CBFC2BB030BD0000001002400D480168D1
:1020700041F4700101600C48016841F00101016008
:10208000002181600268094B1A4002608214C2601C
:10209000026822F48022026081610249C003803913
:1020A0000860704788ED00E000100240FFFFF6EA8C
:1020B0000148FFF702BA00000404002070B502686E
:1020C000164B4FF08046984201D0B04203D122F027
:1020D00070044A682243124C124D984205D0B04217
:1020E00003D0A04201D0A84203D122F44076CA68AE
:1020F00032434E6922F08002324302608A68C26233
:102100000A688262984203D0A04201D0A84201D15D
:10211000096901630121416170BD0000002C01408B
:10212000004001400044014090F82410C90706D047
:1021300001684A68836A22F400321A434A6090F8C0
:102140002410890706D501684A68C36A22F48032E0
:102150001A434A6090F82410490706D501684A6876
:10216000036B22F480221A434A6090F82410090776
:1021700006D501684A68436B22F400421A434A605C
:1021800090F82410C90606D501688A68836B22F48A
:1021900080521A438A6090F82410890606D5016897
:1021A0008A68C36B22F400521A438A6090F82410A4
:1021B000490611D501684A68036C22F480121A435B
:1021C0004A60016CB1F5801F06D101684A68436C12
:1021D00022F4C0021A434A6090F82410090606D57A
:1021E00001684A68806C22F4002202434A6070470A
:1021F000F8B500260446C667FEF708FB05462068CA
:1022000000686FF07E47000708D52B4600224FF488
:1022100000112046009700F0CFF960B920680068EF
:1022200040070AD52B4600224FF480012046009734
:1022300000F0C2F908B10320F8BD20206067A06754
:1022400084F870600020F8BD10B5806A0021A0F805
:102250005A10A0F85210FFF701FA10BD01680A6881
:1022600022F490720A6001688A6822F001028A6092
:102270002021816700210166704710B5B0F85C200D
:10228000836F0168222B04D0088B40F0080008837C
:1022900010BD898C436D11401980416D891C4165C9
:1022A000B0F85A10491EA0F85A10B0F85A10002978
:1022B000EED101680A6822F490720A6001688A68A7
:1022C00022F001028A602021816700210166FFF768
:1022D000E3FB10BD10B5B0F85C20836F0168222BC2
:1022E00004D0088B40F00800088310BD898C114091
:1022F000426D1170416D491C4165B0F85A10491E7C
:10230000A0F85A10B0F85A100029EED101680A68F6
:1023100022F490720A6001688A6822F001028A60E1
:102320002021816700210166FFF7B6FB10BD000088
:10233000F8B50D46064614461146284600F0E0FF63
:102340003046FEF707F8011933460EA20F48891CE4
:10235000009500F091F93046FDF7FCFF0B49204451
:102360000A220A543046FDF7F5FF204401B0401C14
:10237000BDE8F040054982B26423A1F58670FFF7FD
:10238000BFBB000025732573000000009C010020E6
:102390002DE9F041044600682369A268E5691A4303
:1023A000636900272B431A437A4903687A4D2B400F
:1023B0001343036020684268E36822F440521A43E2
:1023C00042602268A0698A4201D0236A1843936858
:1023D00023F4306303439360704B226870489A4241
:1023E0000DD1D0F8880010F0030006D0012838D0B5
:1023F000022834D0032821D135E001251FE0694BA4
:102400009A420BD1D0F8880010F00C0025D0042897
:1024100027D0082823D00C2810D124E08A420DD1DF
:10242000D0F8880010F4406017D0B0F5806F18D055
:10243000B0F5006F13D0B0F5406F14D010255A4B93
:1024400000264FF400408A4245D175B1022D0FD0CD
:10245000042D0FD0082D18D10FE00025EFE702253D
:10246000EDE70425EBE70825E9E7FEF7C3FC03E009
:10247000184602E0FEF7E2FCA8B3626802EB4201F4
:10248000814202D8B0EB023F01D901276FE0DFF8AB
:102490001C815DB1022D0CD0042D13D0082DF4D178
:1024A00050082905401846F1000105E0FEF7A2FC9E
:1024B0000AE050083E49F5E70023FDF7F3FEA0F5DA
:1024C000407150E0FEF7BAFC6268010E030250084A
:1024D00018187141F0E7E1694FF6EF7881422FD18A
:1024E000092DD2D200E042E0DFE805F00609200520
:1024F000230505052600C8E7FEF77CFC01E0FEF792
:102500008BFC4100D4F8040001EB5001B1FBF0F06A
:1025100080B2A0F110014145B7D84FF6F0710140EB
:10252000C0F3420001432068C16020E02149606897
:10253000EAE7FEF783FCE4E74FF480316068E3E705
:10254000092DA2D2DFE805F0060918051E050505CC
:1025500020009AE7FEF74EFC16E0FEF75DFC13E064
:1025600080B2A0F1100141458FD82168C86026666D
:1025700038466666BDE8F081606803EB5001B1FB48
:10258000F0F0EDE7FEF75AFC616800EB5100B0FB9C
:10259000F1F0E5E700800040F369FFEF003801400B
:1025A00000100240004400400024F400FFFC0F0033
:1025B000000024F40048E8012DE9F0479A46174648
:1025C0000E4604464FF000094FF02008089D39E000
:1025D000681C37D0FEF71AF9A0EB0A00A84222D8EF
:1025E0000DB32068016849072CD5C069C0430005B8
:1025F00028D421684FF4006008622068016821F443
:10260000D07101602068816821F001018160C4F807
:102610007480C4F87880C4F87C8000BF84F870901F
:102620000320BDE8F0872068016821F4D0710160C3
:102630002068816821F001018160C4F87480C4F8C9
:102640007880EBE72068C06936EA000004D00020FB
:10265000B842BDD00020E4E70120F9E70148FEF7C9
:10266000FFBF0000900000200148FEF7F9BF000006
:1026700010010020FEE700000FB41CB50246002048
:1026800007AC00290BD0491ECDE90021054B6A4655
:102690002146069800F027F8009A002111701CBC12
:1026A0005DF814FBC32700080907090E002804DBA6
:1026B00000F1E02080F80014704700F00F0000F1F6
:1026C000E02080F8141D704702E008C8121F08C1FE
:1026D000002AFAD170477047002001E001C1121FA3
:1026E000002AFBD170472DE9F84F9946924688465B
:1026F0000546002706E025280AD051464A4690475D
:102700006D1C7F1C28780028F5D1384600F056B89B
:10271000002315F8011F18462E2915D115F8011FA1
:1027200004232A290DD06FF02F022978A1F130045B
:10273000092C09D800EB800002EB400008446D1C16
:10274000F3E758F8040B6D1C2A78002ADDD0632AC1
:1027500007D0732A0FD0104651464A4690477F1C37
:102760002AE018F8042B8DF8002000218DF80110C4
:102770006E46012103E058F8046B4FF0FF315A0711
:102780004FF0000401D409E0641C84420BDA8C424F
:10279000FADB325D002AF7D105E0641C8C42FCDBD9
:1027A000305D0028F9D1274404E016F8010B5146AA
:1027B0004A469047641EF8D26D1CA3E718BCBDE8DA
:1027C000E08F4A68002A06D00A68531C0B6010701C
:1027D0004868401E486070472DE9F041174688461A
:1027E00006460024056828E035B118F8041028468C
:1027F00000F061F818B118E00020BDE8F08118F889
:102800000410284600F02AF918F8040000F01CF81B
:1028100005EB8000406800F02CF9034618F804002E
:1028200000F012F805EB8000436018F8040000F097
:102830000BF805EB8000641C4568BC42D4D370687B
:10284000401C70600120D8E700B5024600F009F88E
:1028500020B1104600F076F8613800BD4FF0FF302F
:1028600000BDA0F15B01062904D341383A2801D20A
:1028700001207047002070470068002800D0012028
:102880007047F0B517460E46002405680DE085B187
:10289000315D284600F00FF8002809D0305DFFF7C1
:1028A000D3FF05EB8000641C4568BC42EFD30120D8
:1028B000F0BD0020F0BD00B503460846FFF7C4FF99
:1028C000012219688240114201D0012000BD002080
:1028D00000BD000010B5002821D0114B0022001FC0
:1028E000196803E0814203D80A4649680029F9D1F2
:1028F00052B11368841A9C4204D1006818441060D5
:10290000104602E0506000E0186039B102680B1A0E
:10291000934203D10B681A4402604968416010BDBC
:1029200088000020EFF30580002800D001207047C8
:1029300010B5044600206060206000F09AF8206026
:10294000012010BD612801D22030C0B270470000C4
:1029500090B0542000F04CF81F4CE060FFF792F963
:10296000542000F045F82061FDF72EFD082000F00E
:102970003FF86061FFF7DCFFFDF756FFFFF72EFB26
:10298000FFF71CF9FFF750F9FFF764F900200E90EC
:102990000F900EA800F079F860601C220F4968467D
:1029A000FDF7B4FC0021684600F02BF90B492060CC
:1029B0001C221C3107A8FDF7A9FC002107A800F084
:1029C00020F90749A0600122A1F58070FFF70EF8F9
:1029D00000F056F8FEE70000000000202844000840
:1029E0009001002001460020842900D0C81C7047B7
:1029F000F0B50B30154D20F007010024144A0FE00C
:102A000003688B420BD38B4205D95E1A4318476883
:102A1000C3E9006700E04368136002C004E0021DE0
:102A200010680028ECD12046002802D1286808B19F
:102A30000020F0BD064A07481060074A121A22F02B
:102A40000702C0E9002401202860D7E78C0000209D
:102A500088000020F4100020F020002000B503467C
:102A60000846FFF7F1FE0122196882401143196000
:102A700000BD10B56C20FFF7BBFF0021016010BD49
:102A800010B500F0BDFD002010BD41684FF0010001
:102A900009B100F0A6BE00F099BE000038B50024D0
:102AA00005460094FFF73EFF90B16946284600F0C6
:102AB000F1FF012801D0FF2038BD009888B10A49F4
:102AC0004FF080500860BFF34F8FBFF36F8F08E067
:102AD00000231A461946284600F02CFF012800D092
:102AE000FF24204638BD000004ED00E038B50500A5
:102AF0004FF0000000900FD00024481C0ED001B110
:102B00000C46FFF70FFFB8B16A460021284601F0D6
:102B10000FF8012816D104E0802038BD4FF0FF34B3
:102B2000EFE7009880B109494FF080500860BFF38B
:102B30004F8FBFF36F8F07E02146284601F046F81C
:102B4000012801D0FF2038BD002038BD04ED00E091
:102B5000FEB5064600200D4602900190FFF7E2FE0A
:102B60004FF0004498B102A8009001AB0122294621
:102B7000304601F0EDF9012811D1029888B10A49D7
:102B8000E0080860BFF34F8FBFF36F8F09E001AB20
:102B900001222946304601F06BF9012801D0204678
:102BA000FEBD0198FEBD000004ED00E0FEB500256D
:102BB00006460F462C460195501C06D002B114461D
:102BC000FFF7B0FE20B1822015E04FF0FF34F7E7A9
:102BD00023463946002001AA01F0AEFA012804D0AC
:102BE0000CB1402007E0009506E00198002801DACA
:102BF000862000E0082000909DE8070086E8070096
:102C0000FEBD7FB50D4604464169B0F9080081B1AB
:102C1000A16971B1FFF7E6FED4E905128DE807005E
:102C2000D4E900102B46226901F0F6F8039004B0B5
:102C300070BDFFF7D7FE03A9CDE90001208A2B461E
:102C400082B2D4E9001001F0B7F8012801D00020C9
:102C5000EDE70398EBE7000004494FF0805008606F
:102C6000BFF34F8FBFF36F8F0020704704ED00E07C
:102C70002DE9F041184C0F46054666692068001D95
:102C800000F057FB38B9206890F82C1001208840DC
:102C9000A1698143A161681C07D137B12168BDE8F2
:102CA000F0410E48091D00F087BB20683544B5424D
:102CB0004560216805D2A068BDE8F041091D00F01B
:102CC00063BB6068091D00F05FFB206B854200D28A
:102CD0002563BDE8F08100002800002020050020C9
:102CE0002DE9F041054600F073FB2E4C2069401C95
:102CF000206120682C4F10B1E06940B32DE02560C1
:102D00002069012829D1002606EB860007EB800008
:102D100000F02CFB761C072EF6D323488C3000F0F5
:102D200025FB2148A03000F021FB1F48B43000F003
:102D30001DFB1D48C83000F019FB1B48DC3000F0BB
:102D400015FB19488C3060601430A06005E02068E5
:102D5000E96AC06A884200D82560E06A401CE062E7
:102D6000E96A0120A26988401043A06101EB81005B
:102D700007EB8000291D00F01FFB00F049FBE06914
:102D800000280CD02068E96AC06A884207D2074947
:102D90004FF080500860BFF34F8FBFF36F8FBDE8D7
:102DA000F0810000280000204404002004ED00E031
:102DB00030B4026C0B46002A0BD0C1681144C160CC
:102DC0008468A14201D30168C16030BC1846FDF798
:102DD0009DBA30BC70472DE9F041856B174604461B
:102DE0000026026C82B1C7B1E068FDF78FFAE16896
:102DF000206C091AE1602268914202D2A168081A87
:102E0000E060022F16D017E02068A8B9A06801F092
:102E1000D9F906460020A0600EE06068FDF776FA5A
:102E2000216C606808446060A168884204D320680F
:102E3000606001E005B16D1E6D1CA5633046BDE804
:102E4000F08110B5044690F8510058B101280CD01B
:102E500002280FD0502080F31188BFF34F8FBFF3AB
:102E60006F8FFEE7206B00F0E7FA2046BDE81040C8
:102E700000F0E2BA10BD00000F4840F6B83142073A
:102E800005D0C01D0C4A20F00700821A891A0B4A8F
:102E900000230144C2E900030839103A21F0070178
:102EA00011604B600B600B1AC0E9001393604FF088
:102EB00000405360D060704734050020740000204B
:102EC000144E154CA6F1C8074FF08058DFF84C900F
:102ED00012E000BF00F07CFAF068C568281D00F021
:102EE00028FA2069401E2061E068401EE06000F082
:102EF0008FFA2846FFF7A5FFE0680028EAD1386876
:102F00000128F9D9C9F80080BFF34F8FBFF36F8F45
:102F1000F2E700000C0500202800002004ED00E08E
:102F2000002807D00021816001600B460A46C1607D
:102F300000F000BD70470346009829B10260C0E967
:102F40000F31012100F0B2BC0060F8E72DE9F04735
:102F50009A46DDE9098481466FF00303206B03EB99
:102F600082021044089E20F00707780707D05020FF
:102F700080F31188BFF34F8FBFF36F8FFEE70025FB
:102F800061B1002023180A5C83F834200A5C12B176
:102F9000401C1028F6D384F8435001E084F83450E4
:102FA000072E00D30626E662C4E91165201D00F055
:102FB000E8F904F1180000F0E4F92461C6F1070013
:102FC0006462A061E56484F8505052464946384630
:102FD00000F00EF92060B8F1000F01D0C8F80040F1
:102FE000BDE8F08730B5114900E011460A68824219
:102FF000FBD34B685C18844203D140681844486096
:10300000084643681C18944209D1084C103C2468B7
:10301000A24209D052681A4442600A6812680260EB
:10302000814200D0086030BD0460F9E774000020E0
:1030300010B5044600F0CCF9A06B28B15FF0000495
:1030400000F0E6F9204610BD0124F9E70648416882
:10305000096829B14168C968C9684968016370474E
:103060004FF0FF31FAE700002800002008484068D0
:10307000401C4FF0500080F3118804D0BFF34F8FF5
:10308000BFF36F8FFEE7BFF34F8FBFF36F8FFEE786
:103090007C0000202DE9F041044600F099F994F9F4
:1030A000455004F1240609E0606A48B1304601F059
:1030B0001FF908B100F032FA6D1E6DB2002DF3DC7D
:1030C0004FF0FF3684F8456000F0A2F900F080F977
:1030D00094F9445004F1100709E0206948B13846DA
:1030E00001F006F908B100F019FA6D1E6DB2002D5D
:1030F000F3DC84F84460BDE8F04100F089B90000D9
:103100002DE9F0410546002700F0B0FA314E306855
:1031100008B9FFF7B1FEF06805424BD1C5B30835D9
:1031200068070ED005F00700C0F1080005446807E5
:1031300007D0502080F31188BFF34F8FBFF36F8FFC
:10314000FEE72DB37068854234D82248103001461E
:103150000C6801E020460C466168A94202D2216851
:103160000029F7D131688C4224D0076821680160BA
:1031700060680837411B10290FD96019420708D031
:10318000502080F31188BFF34F8FBFF36F8FFEE79E
:1031900010E041606560FFF725FF61687068401AC4
:1031A0007060B268904200D2B060F06801430020C5
:1031B000C4E9000101F0D6F8780707D0502080F369
:1031C0001188BFF34F8FBFF36F8FFEE73846BDE81E
:1031D000F0810000640000200449086818B1086804
:1031E000826C521C8264086870470000280000202E
:1031F00010B5031F4FF080741C601B1F21F00101EC
:103200001960191F044B0B6014390A60091F6FF015
:10321000020244380A6010BD6D3000082DE9F04705
:1032200090460F468246FFF72CFB002825D0DAF89F
:103230000000B0F1000920D000240546B8F10106D5
:1032400058D4A54204D1B95D284600F067F84FE094
:10325000A8F1010086422FD1002307E0F85C5B1C37
:10326000FFF7F2FA05EB80002C4645684345F5D39D
:103270002846FFF701FB10B10120BDE8F087284682
:10328000FFF728FBB95D204600F048F825464C467C
:10329000002306E0F85C5B1CFFF7D6FA04EB800025
:1032A0004468F85CFFF7D0FA04EB80004068A8425D
:1032B0001ED0AC42EED11BE02846FFF70BFBB95DF8
:1032C000204600F02BF825464C46002306E0F85C2B
:1032D0005B1CFFF7B9FA04EB80004468F85CFFF769
:1032E000B3FA04EB80004068A84201D0AC42EED1B2
:1032F000761EA6D5DAF80400401ECAF80400BBE723
:1033000010B5002207E0835CA3F16104192C01D8F9
:10331000203B8354521C8A42F5D310BD00B50346AE
:103320000846FFF791FA012219688240914319601B
:1033300000BDD0E9013201699A60D0E901235A60E9
:103340004A68824201D182684A60002202610868AC
:10335000401E086008687047034B036003F1540087
:103360000860802010607047B001002000F1080163
:103370004FF0FF32C0E90112C1600161002101601C
:10338000704700210161704730B50B685A1C02D0AC
:1033900000F1080202E0026904E022465468256850
:1033A0009D42FAD953684B6099608A605160086108
:1033B0000168491C016030BD42684A6093688B60B7
:1033C00093685960916008610168491C0160704709
:1033D000502080F31188BFF34F8FBFF36F8F0A49DE
:1033E0004868401C486001280CD10848006810F06B
:1033F000FF0F07D0502080F31188BFF34F8FBFF32A
:103400006F8FFEE7704700007C00002004ED00E0B5
:103410000849486828B1401E486001D180F31188EE
:103420007047502080F31188BFF34F8FBFF36F8F29
:10343000FEE700007C00002070B5002827D0144D66
:10344000A0F108046168E868014207D1502080F3C8
:103450001188BFF34F8FBFF36F8FFEE722683AB139
:10346000502080F31188BFF34F8FBFF36F8FFEE7BB
:103470008143616000F0FAF8606869680844686038
:103480002046FFF7AFFDBDE8704000F06BBF70BD98
:10349000640000204FF0E0200021016181610549B6
:1034A0004FF47A720968B1FBF2F1491E41610721BC
:1034B000016170472400002010B5FCF7CDFE1149D2
:1034C00010280ED300F1E02090F8F0030A78904223
:1034D00007D2502080F31188BFF34F8FBFF36F8F57
:1034E000FEE709480068896800F4E060884207D96F
:1034F000502080F31188BFF34F8FBFF36F8FFEE72B
:1035000010BD00007C0000200CED00E002498A6A3A
:10351000026049694160704728000020014901208C
:10352000486270472800002010B50C4650B1094988
:1035300009681831FFF728FF2046BDE81040012137
:10354000FFF796BB502080F31188BFF34F8FBFF376
:103550006F8FFEE72800002070B504004BD0A26CEE
:10356000A2B1606C884200D30146E06A884242D032
:10357000012A40D1204D2A6894420FD1502080F377
:103580001188BFF34F8FBFF36F8FFEE7502080F39A
:103590001188BFF34F8FBFF36F8FFEE7E162A2691F
:1035A000002A02DBC1F10701A161144E00EB80008B
:1035B000616906EB800081421DD1201DFFF7B9FE35
:1035C000012150B9E06A00EB800256F8222022B9AE
:1035D000AA6901FA00F08243AA61E06AAA698140FF
:1035E0001143A96100EB800006EB8000211DBDE8BE
:1035F0007040FFF7E1BE70BD2800002044040020A9
:1036000010B586B00024039405AA04A903A8049465
:10361000FFF7A2FEDDE903010094CDE901100023CC
:103620000EA11048059A00F0F7FB0F4900284863E7
:1036300011D0502080F31188BFF34F8FBFF36F8FED
:103640004FF0FF3008630120C8614C6106B0BDE84F
:10365000104000F041B806B010BD000049444C4590
:1036600000000000C12E0008280000200248816BE5
:10367000491C816370470000280000201448816BBA
:1036800011B1012141627047002141628169B1FAA3
:1036900081F1C1F11F0101EB81020E4951F8223085
:1036A0006BB101EB820101F108034A6852684A607C
:1036B0009A4201D152684A60D16801607047502037
:1036C00080F31188BFF34F8FBFF36F8FFEE70000C9
:1036D00028000020440400201CB537480168374A00
:1036E000914207D1502080F31188BFF34F8FBFF371
:1036F0006F8FFEE700683149491E884207D150208C
:1037000080F31188BFF34F8FBFF36F8FFEE72C4913
:1037100008780190FF20087008788DF800009DF867
:1037200000009DF8002000F0F000904207D05020EB
:1037300080F31188BFF34F8FBFF36F8FFEE79DF8C3
:103740000000204B00F0500018700720986005E042
:103750009DF8002052008DF80020401E9DF80020AA
:103760001206F5D49860032807D0502080F3118802
:10377000BFF34F8FBFF36F8FFEE74FF44070986039
:10378000019808700C482030016841F47001016014
:10379000016841F070410160FFF77CFE0020586035
:1037A000FCF722FD0848016841F040410160FCF748
:1037B00007FD00201CBD000000ED00E071C20F41BC
:1037C00000E400E07C00002034EF00E010B5024689
:1037D0000021012000F012F80446FFF7A1FB20466B
:1037E00010BD38B50B46002200901146012000F0B4
:1037F00029F80446FFF794FB204638BDF8B5174674
:103800000E46050014D0DEB105FB06F04830FFF788
:1038100077FC04000AD0002084F8460004F1480236
:103820003B46314628460094FFF785FB2046F8BD0D
:10383000502080F31188BFF34F8FBFF36F8FFEE7E7
:103840000020E3E738B5049D18B153B1CAB181B186
:1038500020E0502080F31188BFF34F8FBFF36F8FAC
:10386000FEE7502080F31188BFF34F8FBFF36F8FB7
:10387000FEE7502080F31188BFF34F8FBFF36F8FA7
:10388000FEE739B1502080F31188BFF34F8FBFF3AB
:103890006F8FFEE748241C46012384F846302B46F0
:1038A0000094FFF748FB204638BD000070B50D4678
:1038B000040025D0FFF78CFDD4E90F20216802FB1E
:1038C0000011A1600021A163216861600A46D4E96A
:1038D0000F01401E00FB0121E16021464FF0FF3047
:1038E00001F8440F487004F110008DB1FFF73EFD60
:1038F00004F12400FFF73AFDFFF78AFD012070BDB7
:10390000502080F31188BFF34F8FBFF36F8FFEE716
:1039100021690029F0D000F0EBFC0028ECD004492C
:103920004FF080500860BFF34F8FBFF36F8FE3E716
:1039300004ED00E02DE9FF4782B01D468A464FF0B6
:103940000008040003D0BAF1000F08D011E05020A5
:1039500080F31188BFF34F8FBFF36F8FFEE7206CAA
:1039600038B1502080F31188BFF34F8FBFF36F8FB2
:10397000FEE7022D0AD1E06B012807D0502080F32A
:103980001188BFF34F8FBFF36F8FFEE700F062FB2C
:103990003F4F4FF000094FF0805648B9049838B1B6
:1039A000502080F31188BFF34F8FBFF36F8FFEE776
:1039B000FFF70EFDA06BE16B884207D3022D05D007
:1039C0000498D0B1B8F1000F1AD01EE02A46514633
:1039D0002046FFF700FA616A19B104F1240000F0F3
:1039E00087FC20B13E60BFF34F8FBFF36F8FFFF7AF
:1039F0000FFD012006B0BDE8F087FFF709FD22E0CA
:103A00006846FFF783FD4FF00108FFF701FDFFF760
:103A10002DFEFFF7DDFC94F94400401C01D184F831
:103A2000449094F94500401C01D184F84590FFF77B
:103A3000EFFC04A9684600F085F930B12046FFF795
:103A400029FB00F08FFC0020D4E7FFF7C1FCA06B3E
:103A5000E16B884213D1FFF7DBFC04F110000499FD
:103A6000FFF762FD2046FFF715FB00F07BFC002806
:103A70009ED13E60BFF34F8FBFF36F8F98E7FFF784
:103A8000C7FC2046FFF706FB00F06CFC90E7000047
:103A900004ED00E070B50E46040009D0206C78B14A
:103AA000502080F31188BFF34F8FBFF36F8FFEE775
:103AB000502080F31188BFF34F8FBFF36F8FFEE765
:103AC000206848B9A06838B1502080F31188BFF34E
:103AD0004F8FBFF36F8FFEE7FFF7EEFC5020EFF341
:103AE000118580F31188BFF34F8FBFF36F8FA16BE8
:103AF000E06B884218D994F94500491CA163411C28
:103B000004D0401C84F8450001200EE0606A0028C3
:103B1000FAD004F1240000F0EBFB0028F4D0002ED2
:103B2000F2D001203060EFE7002085F3118870BDEE
:103B30002DE9F04790468946040003D0B9F1000F03
:103B400008D011E0502080F31188BFF34F8FBFF3EE
:103B50006F8FFEE7206C38B1502080F31188BFF3DF
:103B60004F8FBFF36F8FFEE7FFF7A6FC5020EFF3F8
:103B7000118680F31188BFF34F8FBFF36F8FA76B50
:103B8000F7B194F9445049462046FFF711F97F1EDA
:103B9000A763681C04D06D1C84F84450012010E019
:103BA00020690028FAD004F1100000F0A1FB0028E1
:103BB000F4D0B8F1000FF1D00121C8F80010EDE702
:103BC000002086F31188BDE8F08700002DE9F3435B
:103BD000002683B00400354609D0206C78B150200F
:103BE00080F31188BFF34F8FBFF36F8FFEE7502034
:103BF00080F31188BFF34F8FBFF36F8FFEE700F0A4
:103C000029FADFF83C814FF000094FF0805748B99E
:103C1000049838B1502080F31188BFF34F8FBFF361
:103C20006F8FFEE7FFF7D4FBA06BC8B1401EA06307
:103C3000206810B9FFF7D0FAA060206950B104F1F4
:103C4000100000F055FB28B1C8F80070BFF34F8F8B
:103C5000BFF36F8FFFF7DCFB012005B0BDE8F083F9
:103C6000049808B166B10FE03DB1502080F311888F
:103C7000BFF34F8FBFF36F8FFEE7FFF7C9FB5DE028
:103C80006846FFF743FC0126FFF7C2FBFFF7EEFC97
:103C9000FFF79EFB94F94400401C01D184F8449046
:103CA00094F94500401C01D184F84590FFF7B0FB22
:103CB00004A9684600F046F80028204612D0FFF715
:103CC000E9F900F04FFB2046FFF7B2F90028A9D030
:103CD0009DB3FFF77DFB606A50B3206B0068C0F1B5
:103CE000070126E0FFF7A4F9E0B1206838B9FFF733
:103CF0006FFBA06800F0B2FA0546FFF789FB04F1FC
:103D000024000499FFF710FC2046FFF7C3F900F0E8
:103D100029FB002886D1C8F80070BFF34F8FBFF38E
:103D20006F8F7FE72046FFF7B5F900F01BFB79E7BF
:103D30000021A068FFF710FC9FE7FFE700208CE759
:103D400004ED00E02DE9F0410C46050011D0C4B1AE
:103D5000FFF73EFB174B5A696E682068911B471CA2
:103D600017D02F689B6A9F4219D0964217D801241A
:103D700010E0502080F31188BFF34F8FBFF36F8F97
:103D8000FEE7502080F31188BFF34F8FBFF36F8F92
:103D9000FEE70024FFF73CFB2046BDE8F0818842A7
:103DA00005D9401A20602846FFF7B0FBF1E7002054
:103DB0002060DCE7280000202DE9FF5F8346DDE975
:103DC0000E87994616468A469000FFF799F9050036
:103DD0001CD05420FFF794F9040014D00020256370
:103DE00084F85100CDE90240CDE900874B463246C8
:103DF00051465846FFF7AAF82046FEF771FF01200A
:103E000004B000F006B82846FFF716FB4FF0FF306D
:103E1000F6E730BCBDE8C09FF0B585B0DDE90B64C6
:103E20000A9DA6B1DCB1542700972663022684F8C8
:103E30005160002604AFCDE90246CDE90057FFF7F7
:103E400085F82046FEF74CFF049805B0F0BD5020E1
:103E500080F31188BFF34F8FBFF36F8FFEE75020C1
:103E600080F31188BFF34F8FBFF36F8FFEE7000021
:103E70002DE9F0411F4690460D46012690B10446BB
:103E8000FFF7A6FA0FB1E06C386094F850000221F9
:103E900084F85010B8F1050F19D2DFE808F0230BB1
:103EA0000E141200502080F31188BFF34F8FBFF320
:103EB0006F8FFEE7E16C294301E0E16C491CE1648E
:103EC00010E0022801D0E5640CE0002635E0E16C4A
:103ED000491C07D0502080F31188BFF34F8FBFF3E8
:103EE0006F8FFEE7012828D1201DFFF722FA154D1C
:103EF000E06A0121AA6981401143A961124900EBDE
:103F0000800001EB8000211DFFF756FAA06A38B14E
:103F1000502080F31188BFF34F8FBFF36F8FFEE700
:103F2000E06A2968C96A884207D908494FF0805079
:103F30000860BFF34F8FBFF36F8FFFF769FA30460A
:103F4000BDE8F081280000204404002004ED00E0DA
:103F50002DE9F0471F46DDF8209092460D460400FB
:103F60004FF001081AD0FFF7A7FA5020EFF311869F
:103F700080F31188BFF34F8FBFF36F8F0FB1E06CE9
:103F8000386094F85000022184F85010BAF1050FFF
:103F90001AD2DFE80AF0240B0E141200502080F32E
:103FA0001188BFF34F8FBFF36F8FFEE7E16C29439A
:103FB00001E0E16C491CE16411E0022801D0E564F4
:103FC0000DE04FF000082AE0E16C491C07D05020BA
:103FD00080F31188BFF34F8FBFF36F8FFEE7012887
:103FE0001DD1A06A38B1502080F31188BFF34F8FE4
:103FF000BFF36F8FFEE7154DA86B0127A0B104F149
:1040000018011348FFF7D8F9E06A2968C96A88429D
:1040100005D9B9F1000F01D0C9F800706F6286F3BD
:1040200011884046BDE8F087201DFFF782F9E16A5C
:10403000AA6907FA01F01043A86101EB8100044965
:10404000B43901EB8000211DDCE7000028000020CE
:10405000F80400200548C16919B1806B18B100202F
:1040600070470120704702207047000028000020A0
:104070002DE9F0412E4C0027A06B40B1206A401C76
:104080002062606A00B101273846BDE8F0816669A8
:10409000761C666113D16068006838B1502080F3E7
:1040A0001188BFF34F8FBFF36F8FFEE76068A16881
:1040B0006160A060A06A401CA062FEF7C7FF206B91
:1040C000DFF87080864209D36068006880B160685C
:1040D000C068C568686886420DD220632068C06ADF
:1040E00000EB800158F821000128CAD90127C8E750
:1040F0004FF0FF30F1E7281DFFF71BF9A86A18B150
:1041000005F11800FFF715F9E86A0121A26981405D
:104110001143A16100EB800108EB8100291DFFF72D
:104120004BF9E86A2168C96A8842CDD30127CBE7F9
:1041300028000020440400202DE9F0411E461546C9
:1041400088460746FFF744F91C4C206890F8500059
:10415000022814D02068C16CB943C16421680120D1
:1041600081F850005EB101213046FEF781FD14490F
:104170004FF080500860BFF34F8FBFF36F8FFFF792
:1041800047F9FFF725F915B12068C06C2860206851
:1041900090F85000022801D0002505E02068C16C8D
:1041A00021EA0801C16401252168002081F850003E
:1041B000FFF72EF92846BDE8F08100002800002016
:1041C00004ED00E070B504004FF0000140D0214D37
:1041D0002868844207D0502080F31188BFF34F8FA6
:1041E000BFF36F8FFEE7A06C38B1401EA064636C14
:1041F000E26A9A422CD040B12AE0502080F3118824
:10420000BFF34F8FBFF36F8FFEE7201DFFF791F8CD
:10421000114A012150B9E06A00EB800352F82330C3
:1042200023B9AB6901FA00F08343AB61606CE062D3
:10423000C0F10700A061E06AAB6981401943A96140
:1042400000EB800002EB8000211DFFF7B5F8012193
:10425000084670BD280000204404002070B504000A
:104260004FF0000038D0204DE16A2A68D26A9142AE
:1042700033D2A069002804DB2868C06AC0F10700B7
:10428000A0611A4E01EB8101606906EB8101884251
:104290001ED1201DFFF74DF8012150B9E06A00EB57
:1042A000800256F8222022B9AA6901FA00F082435E
:1042B000AA612868C06AE062AA6981401143A961C5
:1042C00000EB800006EB8000211DFFF775F802E08F
:1042D0002868C06AE062012070BD616C2A68D26AF9
:1042E0009142F8D370BD0000280000204404002053
:1042F0002DE9F041C068C468ACB104F1180007466C
:10430000FFF717F8154DA86B0126A0B139461448E0
:10431000FFF752F8E06A2968C96A88421CD901206F
:104320006E62BDE8F081502080F31188BFF34F8F9B
:10433000BFF36F8FFEE7201DFEF7FBFFE16AAA695E
:1043400006FA01F01043A86101EB81000449B43979
:1043500001EB8000211DDBE70020E2E728000020C0
:10436000F80400202DE9F0472C4D00242746A86BC7
:1043700038B1FFF72DF8A86B401EA863A86B40B1B9
:1043800046E0502080F31188BFF34F8FBFF36F8F4B
:10439000FEE72969224E0120D1B3A6F1B409804677
:1043A0003068E8B1F068C46804F11800FEF7C1FF96
:1043B000201DFEF7BEFFE06AAA6908FA00F111436A
:1043C000A96100EB800109EB8100211DFEF7F4FFDC
:1043D000E06A2968C96A8842E2D3C5F82480DFE729
:1043E0000CB1FEF733FE2C6A44B14646FFF740FE9F
:1043F00000B16E62641EF9D100202862686A38B18B
:104400000849012738070860BFF34F8FBFF36F8F4C
:10441000FEF7FEFF3846BDE8F087000028000020C8
:10442000F804002004ED00E0A8440008191F00086B
:1044300000000000000000008000000000000000FC
:1044400000000000B4440008190500080000000046
:1044500000000000800000000000000000000000DC
:104460000000000000000000010203040607080924
:10447000A0860100400D0300801A060000350C00E4
:1044800040420F0080841E0000093D0000127A00A7
:104490000024F40000366E010048E801006CDC02E4
:1044A000000000000102030464656661756C7454C9
:1044B00061736B0044696374696F6E6172794D61F9
:1044C0006E61676572000000E8440008000000208B
:1044D00090000000C82600087845000890000020E1
:1044E00060240000D8260008000000000000000042
:1044F00000000000000000000000000000000000BC
:1045000010000000010000000000000000093D0054
:10451000000000000000000000000000000000009B
:10452000000000000000000000000000000000008B
:10453000000000000000000000000000000000007B
:10454000000000000000000000000000000000006B
:10455000000000000000000000000000000000005B
:104560000000000000000000AAAAAAAA00000000A3
:08457000000000000000000043
:040000050800018D61
:00000001FF
